:100000000C9429010C944A010C944A010C944A0165
:100010000C944A010C944A010C944A010C944A0134
:100020000C944A010C944A010C944A010C944A0124
:100030000C944A010C944A010C944A010C944A0114
:100040000C944A010C944A010C944A010C944A0104
:100050000C944A010C944A010C944A010C94B2018C
:100060000C944A010C944A010C944A010C944A01E4
:100070000C944A010C944A010C944A010C944A01D4
:100080000C944A010C944A010C944A010C944A01C4
:100090000C944A010C944A010C944A010C944A01B4
:1000A0000C944A010C944A010C944A010C944A01A4
:1000B0000C944A010C944A010C944A010C944A0194
:1000C0000C944A010C944A010C944A010C944A0184
:1000D0000C944A010C944A010C944A010C944A0174
:1000E0000C944A01DA02DD02CC02D002D6021403DB
:1000F000E102E502EB02EF02F302F902FD02010365
:10010000140307030B030F030C94FD020C94E1028C
:100110000C94DD020C94F3020C94EB020C940B0390
:100120000C9407030C94E5020C94D6020C9414036F
:100130000C9401030C940F030C94CC020C94EF026A
:100140000C94F9020C94D0020C94DA0200000A0B11
:1001500002090C0D0E080703040100000000000056
:10016000000000000000000000000000000000008F
:10017000000000000000000012111000000000004C
:10018000000000000000000000000000000000006F
:10019000000001021020200808102040102040809C
:1001A000020102010804020101020408102040803B
:1001B00080402010080402018004020180402010C9
:1001C0000804020108040201010204081020408012
:1001D00001020408102040800505050507050808F0
:1001E0000808020202020A0A0808040404040101C1
:1001F00001010101010103030303030303030407D6
:1002000007070C0C0C0C0C0C0C0C0202020206066C
:100210000606060606060B0B0B0B0B0B0B0B000062
:100220002200250028002B002E003100340002019E
:100230000000050108010B01000021002400270037
:100240002A002D00300033000101000004010701E5
:100250000A0111241FBECFEFD1E2DEBFCDBF00E007
:100260000CBF12E0A0E0B2E0E8E1F7E000E00BBF75
:1002700002C007900D92A231B107D9F722E0A2E1A6
:10028000B2E001C01D92AB31B207E1F70E94A301B9
:100290000C948A030C940000CF93C4E061E08C2F8F
:1002A0000E94150361E08C2F0E94510364EF71E0FE
:1002B00080E090E00E942102CF5FCC3079F7CF91AF
:1002C0000895FF920F931F93CF93DF9327E030E0C1
:1002D000C82FD0E08AE0F82E890101501109BE0133
:1002E00002C0759567952A95E2F761708F2D801B86
:1002F0000E94510398010F3F1F4F71F7DF91CF917B
:100300001F910F91FF900895CF93DF93909100027A
:1003100081E0892780930002C1E0D2E08991909129
:100320000002911181600E9461016EEE72E080E036
:1003300090E00E94210282E0C131D80779F7DF9175
:10034000CF91089508950E945D020E94A2010E942B
:100350004C01C0E0D0E00E9484012097E1F30E94AC
:100360000000F9CF1F920F920FB60F9211242F9316
:100370003F938F939F93AF93BF938091130290917C
:100380001402A0911502B09116023091120223E0DE
:10039000230F2D3720F40196A11DB11D05C026E8BD
:1003A000230F0296A11DB11D209312028093130208
:1003B00090931402A0931502B09316028091170235
:1003C00090911802A0911902B0911A020196A11DF4
:1003D000B11D8093170290931802A0931902B09355
:1003E0001A02BF91AF919F918F913F912F910F90E2
:1003F0000FBE0F901F9018953FB7F8948091170289
:1004000090911802A0911902B0911A0226B5A89BEA
:1004100005C02F3F19F00196A11DB11D3FBFBA2F96
:10042000A92F982F8827820F911DA11DB11DBC01F6
:10043000CD0142E0660F771F881F991F4A95D1F7BB
:1004400008958F929F92AF92BF92CF92DF92EF92D8
:10045000FF926B017C010E94FC014B015C01C11405
:10046000D104E104F10401F10E9481030E94FC0126
:10047000DC01CB0188199909AA09BB09883E934080
:10048000A105B10560F321E0C21AD108E108F10825
:1004900088EE880E83E0981EA11CB11CC114D10403
:1004A000E104F10419F7DBCFFF90EF90DF90CF90DC
:1004B000BF90AF909F908F900895789484B582609C
:1004C00084BD84B5816084BD85B5826085BD85B5F8
:1004D000816085BDEEE6F0E0808181608083E1E8A7
:1004E000F0E01082808182608083808181608083DF
:1004F000E0E8F0E0808181608083E1EBF0E08081E2
:1005000084608083E0EBF0E0808181608083E1E9BA
:10051000F0E0808182608083808181608083E0E977
:10052000F0E0808181608083E1EAF0E08081826098
:100530008083808181608083E0EAF0E08081816057
:100540008083E1E2F1E0808182608083808181604C
:100550008083E0E2F1E0808181608083EAE7F0E07F
:1005600080818460808380818260808380818160DB
:1005700080838081806880831092C100089590E01C
:10058000FC013197E231F10508F04EC08827EE58A2
:10059000FF4F8F4F0C948203809180008F7703C0B0
:1005A000809180008F7D80938000089580918000ED
:1005B000877FF9CF84B58F7702C084B58F7D84BDE6
:1005C00008958091B0008F7703C08091B0008F7D37
:1005D0008093B0000895809190008F7707C080913C
:1005E00090008F7D03C080919000877F8093900062
:1005F00008958091A0008F7707C08091A0008F7D23
:1006000003C08091A000877F8093A000089580910F
:1006100020018F7707C0809120018F7D03C08091DA
:100620002001877F809320010895CF93DF9390E08E
:10063000FC01EE56FE4F2491FC01E852FE4F8491DE
:10064000882361F190E0880F991FFC01E85CFD4F61
:10065000C591D491FC01E25EFD4FA591B491611169
:1006600009C09FB7F8948881209582238883EC91F4
:100670002E230BC0623061F49FB7F8943881822F2B
:10068000809583238883EC912E2B2C939FBF06C0EB
:100690008FB7F894E8812E2B28838FBFDF91CF91FD
:1006A00008951F93CF93DF93282F30E0F901E45B87
:1006B000FE4F8491F901EE56FE4FD491F901E852B4
:1006C000FE4FC491CC23C9F0162F81110E94BF02A6
:1006D000EC2FF0E0EE0FFF1FE25EFD4FA591B4910D
:1006E0008FB7F894111105C09C91ED2FE095E92387
:1006F00002C0EC91ED2BEC938FBFDF91CF911F9156
:1007000008950895EE0FFF1F881F8BBF0790F69185
:08071000E02D1994F894FFCFCD
:1007180001FC60DAF266B63EE0FEE6EE3E9C7A9EAA
:020728008E0041
:00000001FF
