:100000000C9463000C948B000C948B000C948B006C
:100010000C948B000C948B000C948B000C948B0034
:100020000C948B000C948B000C948B000C948B0024
:100030000C948B000C948B000C948B000C948B0014
:100040000C943E070C948B000C94D8040C940A0575
:100050000C948B000C948B000C948B000C948B00F4
:100060000C948B000C948B0000000008000201002F
:100070000003040700000000000000000102040863
:100080001020408001020408102001020408102002
:10009000040404040404040402020202020203032E
:1000A00003030303000000002300260029000000D2
:1000B0000000250028002B0000000000240027007D
:1000C0002A00F7013A0511241FBECFEFD8E0DEBFAA
:1000D000CDBF11E0A0E0B1E0E2EEF6E102C0059094
:1000E0000D92AC36B107D9F722E0ACE6B1E001C021
:1000F0001D92A434B207E1F710E0C3E6D0E004C0DB
:100100002197FE010E942D09C136D107C9F70E942F
:100110002F070C946F0B0C940000CF93DF9326E015
:1001200040E855E260E070E08EE991E00E947304DF
:1001300020E042E060E186E891E00E94D30263E0C3
:1001400071E086E891E00E94A70560E088E00E94E7
:100150007508CEE6D1E080E00E942F08899399933C
:1001600081E0C638D807B9F7DF91CF910895CF93D2
:10017000DF9380E00E942F08EC0120916C01309108
:100180006D012B303105E4F5220F331FF901E259DF
:10019000FE4FD183C0836FE071E08EE991E00E9451
:1001A000A70560916C0170916D014AE050E08EE905
:1001B00091E00E94430669E171E08EE991E00E94BE
:1001C000A70580916C0190916D01019690936D014E
:1001D00080936C01BE01DD0F880B990B0E94480AC9
:1001E000AB01BC0122E030E08EE991E00E942C07D7
:1001F0006DE571E08EE991E0DF91CF910C94A70558
:1002000010926D0110926C01DF91CF910895CF9201
:10021000DF92EF92FF92CF93DF93CEE6D1E0C12C35
:10022000D12C760169917991072E000C880B990BDE
:100230000E94480A9B01AC01C701B6010E94340923
:100240006B017C0181E0C638D80761F720E030E01F
:1002500040E451E4C701B6010E94A509DF91CF91A6
:10026000FF90EF90DF90CF9008958F929F92AF9282
:10027000BF92CF92DF92EF92FF920E94B7000E944E
:1002800007016B017C0166E171E08EE991E00E945B
:10029000A70522E030E0B701A6018EE991E00E94B7
:1002A0002C076CE171E08EE991E00E94A70520E047
:1002B00030E040E85AE3C701B6010E94FD0A20E0A1
:1002C00030E44CE955E40E94FD0A4B015C0188E0F2
:1002D0000E94E108019749F586E891E00E94B10289
:1002E00040E060E086E891E00E94B8026AE271E0D6
:1002F00086E891E00E94A70522E030E0B701A60160
:1003000086E891E00E942C0741E060E086E891E0F9
:100310000E94B80222E030E0B501A40186E891E035
:100320000E942C0767E371E04CC041E060E086E882
:1003300091E00E94B80220E030E040E251E4C501C3
:10034000B4010E94A5096B017C0186E891E00E943E
:10035000B10240E060E086E891E00E94B80222E04D
:1003600030E0B701A60186E891E00E942C076AE31D
:1003700071E086E891E00E94A70541E060E086E830
:1003800091E00E94B80220E030E040E151E4C70172
:10039000B6010E94FD0A20E030E040EA50E40E94ED
:1003A000A50920E030E040E052E40E943409AB01AE
:1003B000BC0122E030E086E891E00E942C076CE36B
:1003C00071E086E891E00E94A705609100017091BC
:1003D0000101072E000C880B990BFF90EF90DF9026
:1003E000CF90BF90AF909F908F900C94AD07CF921D
:1003F000EF920F9382E0C82E93E0E92E04E025E00F
:100400004BE06CE086E891E00E9478030F91EF905A
:10041000CF90089580E090E008950895CF93DF9302
:10042000EC0160E08E810E94B10881E090E00E94C2
:10043000E90761E08E810E94B10881E090E00E94AE
:10044000E90760E08E810E94B10884E690E0DF91C8
:10045000CF910C94E907CF92DF92EF92FF920F9326
:100460001F93CF93DF937C016C0187E0C80ED11CF2
:10047000C0E0D0E0062F10E0B8010C2E02C0759548
:1004800067950A94E2F76170F60181916F010E940D
:10049000B1082196C430D10579F7C701DF91CF911A
:1004A0001F910F91FF90EF90DF90CF900C940E0270
:1004B000CF92DF92EF92FF920F931F93CF93DF9330
:1004C0007C016C0187E0C80ED11CC0E0D0E0062F93
:1004D00010E0B8010C2E02C0759567950A94E2F7FA
:1004E0006170F60181916F010E94B1082196C830B8
:1004F000D10579F7C701DF91CF911F910F91FF903F
:10050000EF90DF90CF900C940E021F93CF93DF9368
:10051000EC01162F642F8C810E94B1088D818F3FD2
:1005200019F060E00E94B1088F85612F84FF06C03A
:10053000CE01DF91CF911F910C94580270E084E0BE
:10054000759567958A95E1F7CE010E942B02612F80
:10055000CE01DF91CF911F910C942B0240E00C94BF
:10056000850261E00E94AE0280ED97E00C94E907FD
:10057000FC01443008F043E08389481710F04FEF46
:10058000480FDF01A40FB11D54969C91690F60685C
:10059000CF010C94AE02FC016089262F2460208BD1
:1005A0006C600C94AE02EF92FF920F931F93CF9367
:1005B000DF93EC01423018F08F8588608F874B8B7A
:1005C0001C8A80E48D8B6E8B70E0605C7F4F6F8B3C
:1005D000222329F0413019F48F8584608F8761E0F0
:1005E0008C810E9475088D818F3F19F061E00E9417
:1005F000750861E08E810E9475087E0187E0E80E33
:10060000F11C00E010E08F8584FD03C084E090E0E1
:1006100002C088E090E0081719074CF461E0F70188
:1006200081917F010E9475080F5F1F4FECCF80E51D
:1006300093EC0E94E90760E08C810E94B10860E0C1
:100640008E810E94B1088D818F3F19F060E00E9479
:10065000B1086F8564FD1DC063E0CE010E942B02CE
:1006600084E991E10E94E90763E0CE010E942B0238
:1006700084E991E10E94E90763E0CE010E942B0228
:1006800086E990E00E94E90762E0CE010E942B0219
:1006900016C06062CE010E94AE0284E991E10E9420
:1006A000E9076F856062CE010E94AE0286E990E0A4
:1006B0000E94E9076F856062CE010E94AE026F85DD
:1006C0006062CE010E94AE0284E0888BCE010E945F
:1006D000CB02CE010E94B10282E0898B66E0CE019E
:1006E000DF91CF911F910F91FF90EF900C94AE028C
:1006F000CF92EF920F93FC011382128282E491E079
:100700009183808364838FEF85834683278300876B
:10071000E186C2861386148615861686178620E023
:1007200041E060E1CF010F91EF90CF900C94D302A4
:1007300041E00E94850281E090E00895FC01918DE6
:10074000228D892F90E0805C9F4F821B91098F73CF
:1007500099270895FC01918D828D981731F0828D33
:10076000E80FF11D858D90E008958FEF9FEF0895BC
:10077000FC01918D828D981761F0828DDF01A80FA9
:10078000B11D5D968C91928D9F5F9F73928F90E0CB
:1007900008958FEF9FEF0895FC01538D448D252F11
:1007A00030E0842F90E0821B930B541710F0CF960B
:1007B00008950197089580E395E0892B49F080E042
:1007C00090E0892B29F00E94300581110C940000E3
:1007D0000895FC01848DDF01A80FB11DA35ABF4FFE
:1007E0002C91848D90E001968F739927848FA68930
:1007F000B7892C93A089B1898C9180648C93938D57
:10080000848D981306C00288F389E02D80818F7D46
:1008100080830895CF93DF93EC01888D8823C9F0FE
:10082000EA89FB89808185FD05C0A889B9898C91F9
:1008300086FD0FC00FB607FCF5CF808185FFF2CF94
:10084000A889B9898C9185FFEDCFCE010E94E9037B
:10085000E7CFDF91CF910895EF92FF920F931F930F
:10086000CF93DF93EC0181E0888F9B8D8C8D981363
:1008700005C0E889F989808185FD24C0F62E0B8D9D
:1008800010E00F5F1F4F0F731127E02E8C8DE812C1
:100890000CC00FB607FCFACFE889F989808185FF83
:1008A000F5CFCE010E94E903F1CF8B8DFE01E80F59
:1008B000F11DE35AFF4FF0820B8FEA89FB8980819B
:1008C000806207C0EE89FF896083E889F9898081A9
:1008D0008064808381E090E0DF91CF911F910F9140
:1008E000FF90EF900895CF92DF92EF92FF921F93C7
:1008F000CF93DF93EC016A017B01122FE889F9891C
:1009000082E080834115514E61057105B1F060E0D0
:1009100079E08DE390E0A70196010E940B09DA01CE
:10092000C9010197A109B109B695A7959795879532
:10093000AC01411580E15807A8F0E889F9891082D7
:1009400060E874E88EE190E0A70196010E940B092F
:10095000BA01A9014150510961097109769567955C
:1009600057954795EC85FD855083EE85FF8540833F
:10097000188EEC89FD891083EA89FB89808180616A
:100980008083EA89FB89808188608083EA89FB898A
:10099000808180688083EA89FB8980818F7D808364
:1009A000DF91CF911F91FF90EF90DF90CF9008954E
:1009B0001F920F920FB60F9211242F938F939F9334
:1009C000EF93FF93E091AE01F091AF018081E09150
:1009D000B401F091B50182FD12C090818091B70100
:1009E0008F5F8F732091B801821751F0E091B701AA
:1009F000F0E0E256FE4F958F8093B70101C08081F1
:100A0000FF91EF919F918F912F910F900FBE0F90BB
:100A10001F9018951F920F920FB60F9211242F93CB
:100A20003F934F935F936F937F938F939F93AF9376
:100A3000BF93EF93FF938EE991E00E94E903FF914A
:100A4000EF91BF91AF919F918F917F916F915F9146
:100A50004F913F912F910F900FBE0F901F901895BF
:100A60008EE991E00E949E0321E0892B09F420E0A9
:100A7000822F0895EEE9F1E01382128288EE93E06E
:100A8000A0E0B0E084839583A683B7838EE491E0F1
:100A90009183808385EC90E09587848784EC90E057
:100AA0009787868780EC90E0918B808B81EC90E03B
:100AB000938B828B82EC90E0958B848B86EC90E01C
:100AC000978B868B118E128E138E148E0895CF9273
:100AD000DF92EF92FF920F931F93CF93DF936C01FE
:100AE0007A018B01C0E0D0E0CE15DF0589F0D80196
:100AF0006D918D01D601ED91FC910190F081E02D79
:100B0000C6010995892B11F47E0102C02196ECCF14
:100B1000C701DF91CF911F910F91FF90EF90DF9070
:100B2000CF9008956115710579F0FB0101900020C7
:100B3000E9F73197AF01461B570BDC01ED91FC91B2
:100B40000280F381E02D099480E090E008950C94F8
:100B50009205DC01ED91FC910190F081E02D09946A
:100B60004F925F926F927F92EF92FF920F931F933B
:100B7000CF93DF93CDB7DEB7A1970FB6F894DEBF62
:100B80000FBECDBF7C01FA01CB0119A2223008F4BF
:100B90002AE08E010F5D1F4F422E512C612C712CCB
:100BA000BF01A30192010E940B09F901CA01015082
:100BB00011096A3014F4605D01C0695CD8016C935E
:100BC000232B242B252B61F7B801C7010E94920526
:100BD000A1960FB6F894DEBF0FBECDBFDF91CF91C7
:100BE0001F910F91FF90EF907F906F905F904F90CB
:100BF0000895CF92DF92EF92FF920F931F93CF93BE
:100C0000DF93EC016A017B012115310579F4E8815C
:100C1000F9810190F081E02D642FDF91CF911F9138
:100C20000F91FF90EF90DF90CF9009942A3031051B
:100C3000E9F477FF1AC06DE20E94A9058C014427F0
:100C40005527BA014C195D096E097F092AE0CE01CA
:100C50000E94B005800F911FDF91CF911F910F91DE
:100C6000FF90EF90DF90CF9008952AE0B701A601A2
:100C7000CE01DF91CF911F910F91FF90EF90DF9008
:100C8000CF900C94B0059A01AB01770F660B770BF0
:100C90000C94F9054F925F926F927F928F929F9280
:100CA000AF92BF92CF92DF92EF92FF92CF93DF93FA
:100CB000EC016A017B01B22E9A01AB01C701B601BA
:100CC0000E946A0B882319F06FE571E027C02601A6
:100CD0003701E89477F82FEF3FEF4FE75FE7C30165
:100CE000B2010E946A0B81110DC02FEF3FEF4FE759
:100CF0005FE7C301B2010E94A00918161CF463E665
:100D000071E00CC02FEF3FEF4FE75FE4C701B60182
:100D10000E94F80A18169CF467E671E0CE01DF9194
:100D2000CF91FF90EF90DF90CF90BF90AF909F90CA
:100D30008F907F906F905F904F900C9492052FEF63
:100D40003FEF4FE75FECC701B6010E94A00987FDA6
:100D5000E3CF20E030E0A901C701B6010E94A0095D
:100D600087FF0AC06DE2CE010E94A9054C01F7FA87
:100D7000F094F7F8F09402C0812C912CA12C60E043
:100D800070E080E09FE3AB1441F020E030E040E20F
:100D900051E40E94A509A394F6CF9B01AC01C701C1
:100DA000B6010E9434092B013C010E94170A6B0115
:100DB0007C010E94460A9B01AC01C301B2010E9462
:100DC00033092B013C012AE0B701A601CE010E94A4
:100DD000B0057C01E80CF91CBB2031F06EE2CE01BD
:100DE0000E94A905E80EF91EDB2CDD2029F120E088
:100DF00030E040E251E4C301B2010E94FD0A2B0140
:100E00003C010E94170A4B01A12CB12C2AE0B5012C
:100E1000A401CE010E94B005E80EF91EC501B4017F
:100E20000E94460A9B01AC01C301B2010E94330932
:100E30002B013C01DA94D9CFC701DF91CF91FF900C
:100E4000EF90DF90CF90BF90AF909F908F907F906A
:100E50006F905F904F9008950C944A0608950E94F9
:100E6000F4070E942E070E948D00CBEDD3E00E9474
:100E700035012097E1F30E94DB03F9CF1F920F9217
:100E80000FB60F9211242F933F938F939F93AF939D
:100E9000BF9380913C0290913D02A0913E02B0919F
:100EA0003F0230913B0223E0230F2D3720F40196BF
:100EB000A11DB11D05C026E8230F0296A11DB11D7D
:100EC00020933B0280933C0290933D02A0933E020C
:100ED000B0933F028091400290914102A091420262
:100EE000B09143020196A11DB11D809340029093E1
:100EF0004102A0934202B0934302BF91AF919F91F0
:100F00008F913F912F910F900FBE0F901F901895CA
:100F10003FB7F8948091400290914102A091420223
:100F2000B091430226B5A89B05C02F3F19F001964A
:100F3000A11DB11D3FBFBA2FA92F982F8827820F5F
:100F4000911DA11DB11DBC01CD0142E0660F771FAF
:100F5000881F991F4A95D1F708958F929F92AF925B
:100F6000BF92CF92DF92EF92FF926B017C010E94C1
:100F700088074B015C01C114D104E104F10401F1C3
:100F80000E940A090E948807DC01CB01881999098F
:100F9000AA09BB09883E9340A105B10560F321E091
:100FA000C21AD108E108F10888EE880E83E0981E85
:100FB000A11CB11CC114D104E104F10419F7DBCF69
:100FC000FF90EF90DF90CF90BF90AF909F908F9069
:100FD00008958230910538F0880F991F880F991F66
:100FE00005970197F1F70895789484B5826084BDE0
:100FF00084B5816084BD85B5826085BD85B581601D
:1010000085BDEEE6F0E0808181608083E1E8F0E07C
:101010001082808182608083808181608083E0E8AB
:10102000F0E0808181608083E1EBF0E0808184608A
:101030008083E0EBF0E0808181608083EAE7F0E08C
:1010400080818460808380818260808380818160F0
:1010500080838081806880831092C10008958E30E3
:1010600008F08E5087702091020190E4299F900132
:101070001124822B80937C0080917A00806480937D
:101080007A0080917A0086FDFCCF809178002091D3
:10109000790090E0922B0895833081F028F481301C
:1010A00099F08230A1F008958730A9F08830B9F026
:1010B0008430D1F4809180008F7D03C080918000C6
:1010C0008F7780938000089584B58F7702C084B5B0
:1010D0008F7D84BD08958091B0008F7703C080918B
:1010E000B0008F7D8093B0000895CF93DF9390E0A0
:1010F000FC01E458FF4F2491FC01E057FF4F84911D
:10110000882361F190E0880F991FFC01E854FF4F9C
:10111000C591D491FC01E255FF4FA591B4916111A5
:1011200009C09FB7F8948881209582238883EC9129
:101130002E230BC0623061F49FB7F8943881822F60
:10114000809583238883EC912E2B2C939FBF06C020
:101150008FB7F894E8812E2B28838FBFDF91CF9132
:1011600008951F93CF93DF93282F30E0F901E859BA
:10117000FF4F8491F901E458FF4FD491F901E057F2
:10118000FF4FC491CC23C9F0162F81110E944C0847
:10119000EC2FF0E0EE0FFF1FE255FF4FA591B49149
:1011A0008FB7F894111105C09C91ED2FE095E923BC
:1011B00002C0EC91ED2BEC938FBFDF91CF911F918B
:1011C0000895CF93DF93282F30E0F901E859FF4FBE
:1011D0008491F901E458FF4FD491F901E057FF4F92
:1011E000C491CC2391F081110E944C08EC2FF0E0C7
:1011F000EE0FFF1FEC55FF4FA591B491EC91ED233D
:1012000081E090E021F480E002C080E090E0DF9196
:10121000CF9108950895A1E21A2EAA1BBB1BFD01D0
:101220000DC0AA1FBB1FEE1FFF1FA217B307E407C5
:10123000F50720F0A21BB30BE40BF50B661F771F1D
:10124000881F991F1A9469F76095709580959095FD
:101250009B01AC01BD01CF010895EE0FFF1F05906A
:10126000F491E02D09945058BB27AA270E944B09FE
:101270000C94BE0A0E94B00A38F00E94B70A20F00F
:1012800039F49F3F19F426F40C94AD0A0EF4E0955E
:10129000E7FB0C94A70AE92F0E94CF0A58F3BA176C
:1012A000620773078407950720F079F4A6F50C947C
:1012B000F10A0EF4E0950B2EBA2FA02D0B01B90107
:1012C00090010C01CA01A0011124FF27591B99F0BC
:1012D000593F50F4503E68F11A16F040A22F232FC8
:1012E000342F4427585FF3CF469537952795A79518
:1012F000F0405395C9F77EF41F16BA0B620B730BBF
:10130000840BBAF09150A1F0FF0FBB1F661F771F2F
:10131000881FC2F70EC0BA0F621F731F841F48F4E4
:10132000879577956795B795F7959E3F08F0B0CF6D
:101330009395880F08F09927EE0F97958795089554
:101340000E94830A08F481E008950E94B9090C9470
:10135000BE0A0E94B70A58F00E94B00A40F029F471
:101360005F3F29F00C94A70A51110C94F20A0C94D7
:10137000AD0A0E94CF0A68F39923B1F3552391F384
:10138000951B550BBB27AA2762177307840738F0F4
:101390009F5F5F4F220F331F441FAA1FA9F335D051
:1013A0000E2E3AF0E0E832D091505040E695001C05
:1013B000CAF72BD0FE2F29D0660F771F881FBB1FBF
:1013C000261737074807AB07B0E809F0BB0B802D9D
:1013D000BF01FF2793585F4F3AF09E3F510578F0C9
:1013E0000C94A70A0C94F20A5F3FE4F3983ED4F3FE
:1013F000869577956795B795F7959F5FC9F7880F9D
:10140000911D9695879597F90895E1E0660F771FEE
:10141000881FBB1F621773078407BA0720F0621B7F
:10142000730B840BBA0BEE1F88F7E09508950E94AA
:10143000D70A88F09F5798F0B92F9927B751B0F085
:10144000E1F0660F771F881F991F1AF0BA95C9F748
:1014500014C0B13091F00E94F10AB1E008950C94EB
:10146000F10A672F782F8827B85F39F0B93FCCF39E
:10147000869577956795B395D9F73EF490958095C5
:10148000709561957F4F8F4F9F4F0895E89409C0E5
:1014900097FB3EF490958095709561957F4F8F4FA7
:1014A0009F4F9923A9F0F92F96E9BB279395F695BD
:1014B000879577956795B795F111F8CFFAF4BB0F3B
:1014C00011F460FF1BC06F5F7F4F8F4F9F4F16C09F
:1014D000882311F096E911C0772321F09EE8872F29
:1014E000762F05C0662371F096E8862F70E060E0E5
:1014F0002AF09A95660F771F881FDAF7880F96955E
:10150000879597F90895990F0008550FAA0BE0E801
:10151000FEEF16161706E807F907C0F012161306B5
:10152000E407F50798F0621B730B840B950B39F4F5
:101530000A2661F0232B242B252B21F408950A265B
:1015400009F4A140A6958FEF811D811D089597F99B
:101550009F6780E870E060E008959FEF80EC089559
:1015600000240A9416161706180609060895002482
:101570000A9412161306140605060895092E0394FC
:10158000000C11F4882352F0BB0F40F4BF2B11F470
:1015900060FF04C06F5F7F4F8F4F9F4F089557FDCF
:1015A0009058440F551F59F05F3F71F04795880FD1
:1015B00097FB991F61F09F3F79F087950895121668
:1015C00013061406551FF2CF4695F1DF08C0161614
:1015D00017061806991FF1CF8695710561050894C5
:1015E0000895E894BB2766277727CB0197F90895DC
:1015F0000E94830A08F48FEF08950E94100B0C9448
:10160000BE0A0E94B00A38F00E94B70A20F0952363
:1016100011F00C94A70A0C94AD0A11240C94F20A50
:101620000E94CF0A70F3959FC1F3950F50E0551FAC
:10163000629FF001729FBB27F00DB11D639FAA2727
:10164000F00DB11DAA1F649F6627B00DA11D661F76
:10165000829F2227B00DA11D621F739FB00DA11D97
:10166000621F839FA00D611D221F749F3327A00D51
:10167000611D231F849F600D211D822F762F6A2FED
:1016800011249F5750409AF0F1F088234AF0EE0F52
:10169000FF1FBB1F661F771F881F91505040A9F77F
:1016A0009E3F510580F00C94A70A0C94F20A5F3F0C
:1016B000E4F3983ED4F3869577956795B795F795BB
:1016C000E7959F5FC1F7FE2B880F911D9695879533
:1016D00097F908950E94830A880B990B0895F8944E
:0216E000FFCF3A
:1016E200881301496E697469616C697A6564007670
:1016F200616C756520006176673A20002020202009
:10170200202D2D2D20202020200073656E736F72F6
:101712002076616C3A20006D5600430046000000BE
:101722000000980367050A020D02000000002C0465
:101732006705CC030A049E03B803AA030D0A006ED0
:0C174200616E00696E66006F7666000044
:00000001FF
