:100000000C945E000C9486000C9486000C94860080
:100010000C9486000C9486000C9486000C94860048
:100020000C9486000C9486000C9486000C94DD00E1
:100030000C9486000C9486000C9486000C94860028
:100040000C94E2050C9486000C940D040C943F046F
:100050000C9486000C9486000C9486000C94860008
:100060000C9486000C948600000000080002010039
:100070000003040700000000000000000102040863
:100080001020408001020408102001020408102002
:10009000040404040404040402020202020203032E
:1000A0000303030300000000250028002B000000CC
:1000B0000000240027002A00D9006F0411241FBE6D
:1000C000CFEFD8E0DEBFCDBF11E0A0E0B1E0E0E3CC
:1000D000FFE002C005900D92A432B107D9F721E0EC
:1000E000A4E2B1E001C01D92A33FB207E1F710E026
:1000F000CEE5D0E004C02197FE010E948107CC35F7
:10010000D107C9F70E94D3050C9496070C94000000
:1001100026E040E855E260E070E08DE491E00E9466
:10012000A803609100017091010184E291E00C94B8
:100130003C02AF92BF92CF92DF92EF92FF920F9369
:100140001F93CF93DF938EE00E946706EC014AE095
:1001500050E0BC018DE491E00E947A05BE010D2EB5
:10016000000C880B990B1F921F921F9223EB2F9369
:10017000A12CB12C6501EE24EA9413E0F12E00E0ED
:1001800010E020E030E0A9010E9491050F900F904F
:100190000F900F90BE0184E291E0DF91CF911F910B
:1001A0000F91FF90EF90DF90CF90BF90AF900C94A5
:1001B000770284E291E00C949E011F920F920FB699
:1001C0000F9211242F933F934F935F936F937F93DD
:1001D0008F939F93AF93BF93EF93FF9380912801E9
:1001E00087FF05C010928500109284001BC02091EB
:1001F0002801022E000C330B8091270190E0281774
:10020000390784F480912801082E000C990BFC0119
:10021000EE0FFF1F8E0F9F1FFC01E75DFE4F8081D9
:1002200086FD15C0809128018F5F80932801209161
:100230002801022E000C330B8091270190E0281733
:100240003907C4F4809128018C3064F113C0809187
:100250002801082E000C990BFC01EE0FFF1F8E0FDA
:100260009F1FFC01E75DFE4F808160E08F730E945D
:10027000E906D8CF8091840090918500049680345F
:100280009C4918F480E49CE905C080918400909119
:100290008500049690938900809388008FEF809367
:1002A00028013BC020918400309185008091280175
:1002B000082E000C990BFC01EE0FFF1F8E0F9F1FE5
:1002C000FC01E75DFE4F81819281820F931F909325
:1002D00089008093880080912801082E000C990BDA
:1002E000FC01EE0FFF1F8E0F9F1FFC01E75DFE4F0D
:1002F000808186FF12C080912801082E000C990B86
:10030000FC01EE0FFF1F8E0F9F1FFC01E75DFE4FEC
:10031000808161E08F730E94E906FF91EF91BF91A8
:10032000AF919F918F917F916F915F914F913F918D
:100330002F910F900FBE0F901F901895FC01909178
:1003400027019C30A0F481E0890F809327019083DE
:10035000892F90E0FC01EE0FFF1F8E0F9F1FFC0105
:10036000E75DFE4F88EB9BE09283818308958FEFDA
:1003700080830895DF92EF92FF920F931F93CF93A4
:10038000DF93EC01D62E7A01890188818C3008F048
:100390006AC061E08D2D0E94AD068881E82FF0E0F3
:1003A0009F01220F331FE20FF31FE75DFE4F9D2DCC
:1003B0009F732081207CD22ED92AD08260E272E005
:1003C000AB014E195F0957FF02C04D5F5F4F559556
:1003D000479555954795498340E659E09A01201B7A
:1003E000310B37FF02C02D5F3F4F3595279535956F
:1003F00027952A836CE00E9429079CE0899FB00121
:10040000112440E050E09A01260F371FF901EE0F4A
:10041000FF1F2E0F3F1FF901E75DFE4F908196FDF4
:1004200016C04F5F5F4F4C30510569F781110FC007
:100430001092800082E080938100109285001092DB
:100440008400B19A80916F00826080936F00E88190
:10045000F0E0CF01880F991FE80FF91FE75DFE4F0D
:100460008081806480838881DF91CF911F910F917B
:10047000FF90EF90DF90089520E639E040E252E0EF
:100480000C94BA01FC0190819C3080F5818128E8B0
:1004900030E0281B310987FD3395220F331F220FCF
:1004A000331F621773077CF0828128E532E0281B36
:1004B000310987FD3395220F331F220F331F621737
:1004C00073070CF49B0122503109220F331F4FB7E1
:1004D000F894892F90E0FC01EE0FFF1F8E0F9F1FF5
:1004E000FC01E75DFE4F328321834FBF0895AF9239
:1004F000BF92CF92DF92EF92FF920F931F93CF9311
:10050000DF93EC01603282E078070CF03FC077FDAA
:1005100006C0653B71052CF064EB70E002C060E042
:1005200070E0898128E830E05901A81AB10887FDF8
:10053000B394AA0CBB1CAA0CBB1C0B2C000CCC0843
:10054000DD08072E000C880B990B2A8108E512E0C4
:10055000021B110927FD1395000F111F000F111F1A
:10056000012E000C220B330B3F932F931F930F93FD
:1005700014EBE12EF12C00E010E020E030E0A901C6
:100580000E9491050F900F900F900F90CE01DF9178
:10059000CF911F910F91FF90EF90DF90CF90BF9080
:1005A000AF900C944202FC01918D228D892F90E036
:1005B000805C9F4F821B91098F7399270895FC01DE
:1005C000918D828D981731F0828DE80FF11D858D08
:1005D00090E008958FEF9FEF0895FC01918D828D3B
:1005E000981761F0828DDF01A80FB11D5D968C9187
:1005F000928D9F5F9F73928F90E008958FEF9FEF92
:100600000895FC01538D448D252F30E0842F90E018
:10061000821B930B541710F0CF96089501970895FD
:1006200085E694E0892B49F080E090E0892B29F061
:100630000E94650481110C9400000895FC01848DD2
:10064000DF01A80FB11DA35ABF4F2C91848D90E0FC
:1006500001968F739927848FA689B7892C93A089D7
:10066000B1898C9180648C93938D848D981306C08E
:100670000288F389E02D80818F7D80830895CF9358
:10068000DF93EC01888D8823C9F0EA89FB8980819A
:1006900085FD05C0A889B9898C9186FD0FC00FB66C
:1006A00007FCF5CF808185FFF2CFA889B9898C91AD
:1006B00085FFEDCFCE010E941E03E7CFDF91CF91E2
:1006C0000895EF92FF920F931F93CF93DF93EC0166
:1006D00081E0888F9B8D8C8D981305C0E889F989FE
:1006E000808185FD24C0F62E0B8D10E00F5F1F4F1B
:1006F0000F731127E02E8C8DE8120CC00FB607FC8B
:10070000FACFE889F989808185FFF5CFCE010E9473
:100710001E03F1CF8B8DFE01E80FF11DE35AFF4F51
:10072000F0820B8FEA89FB898081806207C0EE89A5
:10073000FF896083E889F98980818064808381E012
:1007400090E0DF91CF911F910F91FF90EF9008956E
:10075000CF92DF92EF92FF921F93CF93DF93EC0142
:100760006A017B01122FE889F98982E080834115B3
:10077000514E61057105B1F060E079E08DE390E0E4
:10078000A70196010E943507DA01C9010197A10965
:10079000B109B695A79597958795AC01411580E16C
:1007A0005807A8F0E889F989108260E874E88EE1BA
:1007B00090E0A70196010E943507BA01A9014150B6
:1007C0005109610971097695679557954795EC85AB
:1007D000FD855083EE85FF854083188EEC89FD8969
:1007E0001083EA89FB89808180618083EA89FB89A3
:1007F000808188608083EA89FB898081806880832A
:10080000EA89FB8980818F7D8083DF91CF911F9161
:10081000FF90EF90DF90CF9008951F920F920FB648
:100820000F9211242F938F939F93EF93FF93E09157
:100830005D01F0915E018081E0916301F0916401BE
:1008400082FD12C09081809166018F5F8F7320912D
:100850006701821751F0E0916601F0E0E35BFE4F23
:10086000958F8093660101C08081FF91EF919F91E8
:100870008F912F910F900FBE0F901F9018951F9280
:100880000F920FB60F9211242F933F934F935F93C4
:100890006F937F938F939F93AF93BF93EF93FF9348
:1008A0008DE491E00E941E03FF91EF91BF91AF9103
:1008B0009F918F917F916F915F914F913F912F9178
:1008C0000F900FBE0F901F9018958DE491E00E943D
:1008D000D30221E0892B09F420E0822F0895EDE472
:1008E000F1E01382128288EE93E0A0E0B0E084830E
:1008F0009583A683B78387E091E09183808385EC1D
:1009000090E09587848784EC90E09787868780ECD9
:1009100090E0918B808B81EC90E0938B828B82ECCA
:1009200090E0958B848B86EC90E0978B868B118E74
:10093000128E138E148E0895CF92DF92EF92FF9253
:100940000F931F93CF93DF936C017A018B01C0E06B
:10095000D0E0CE15DF0589F0D8016D918D01D6016B
:10096000ED91FC910190F081E02DC6010995892B54
:1009700011F47E0102C02196ECCFC701DF91CF9127
:100980001F910F91FF90EF90DF90CF900895611528
:10099000710579F0FB0101900020E9F73197AF0173
:1009A000461B570BDC01ED91FC910280F381E02D99
:1009B000099480E090E00895DC01ED91FC910190B4
:1009C000F081E02D099465E171E00C94C7044F9229
:1009D0005F926F927F92EF92FF920F931F93CF934C
:1009E000DF93CDB7DEB7A1970FB6F894DEBF0FBE89
:1009F000CDBF7C01FA01CB0119A2223008F42AE014
:100A00008E010F5D1F4F422E512C612C712CBF01A6
:100A1000A30192010E943507F901CA010150110991
:100A20006A3014F4605D01C0695CD8016C93232BBB
:100A3000242B252B61F7B801C7010E94C704A1969A
:100A40000FB6F894DEBF0FBECDBFDF91CF911F91DF
:100A50000F91FF90EF907F906F905F904F9008956F
:100A6000CF92DF92EF92FF920F931F93CF93DF937A
:100A7000EC016A017B012115310579F4E881F981E6
:100A80000190F081E02D642FDF91CF911F910F91A4
:100A9000FF90EF90DF90CF9009942A303105E9F470
:100AA00077FF1AC06DE20E94DC048C0144275527B1
:100AB000BA014C195D096E097F092AE0CE010E9436
:100AC000E704800F911FDF91CF911F910F91FF904D
:100AD000EF90DF90CF9008952AE0B701A601CE01F4
:100AE000DF91CF911F910F91FF90EF90DF90CF900A
:100AF0000C94E7040F931F93CF93DF93EC019A01BB
:100B0000AB01770F660B770B0E9430058C01CE018D
:100B10000E94E304800F911FDF91CF911F910F91ED
:100B200008954F925F926F927F92AF92BF92CF9251
:100B3000DF92EF92FF920F931F93CF93DF93CDB786
:100B4000DEB729013A019B01AC0124193509460998
:100B5000570989899A89AB89BC89BC01CD016A1979
:100B60007B098C099D090E941907A8019701241986
:100B70003509460957090E945707CA01B9016A0D8C
:100B80007B1D8C1D9D1DDF91CF911F910F91FF90BB
:100B9000EF90DF90CF90BF90AF907F906F905F907D
:100BA0004F90089508950E942C060E94D2050E943D
:100BB0008800C0E1D3E00E9499002097E1F30E94F1
:100BC0001003F9CF1F920F920FB60F9211242F939B
:100BD0003F938F939F93AF93BF938091EB0190913D
:100BE000EC01A091ED01B091EE013091EA0123E01A
:100BF000230F2D3720F40196A11DB11D05C026E855
:100C0000230F0296A11DB11D2093EA018093EB01F1
:100C10009093EC01A093ED01B093EE018091EF0170
:100C20009091F001A091F101B091F2010196A11D06
:100C3000B11D8093EF019093F001A093F101B09367
:100C4000F201BF91AF919F918F913F912F910F90A2
:100C50000FBE0F901F901895789484B5826084BD64
:100C600084B5816084BD85B5826085BD85B58160B0
:100C700085BDEEE6F0E0808181608083E1E8F0E010
:100C80001082808182608083808181608083E0E83F
:100C9000F0E0808181608083E1EBF0E0808184601E
:100CA0008083E0EBF0E0808181608083EAE7F0E020
:100CB0008081846080838081826080838081816084
:100CC00080838081806880831092C10008958E3077
:100CD00008F08E5087702091020190E4299F9001C6
:100CE0001124822B80937C0080917A008064809311
:100CF0007A0080917A0086FDFCCF80917800209167
:100D0000790090E0922B0895833081F028F48130AF
:100D100099F08230A1F008958730A9F08830B9F0B9
:100D20008430D1F4809180008F7D03C08091800059
:100D30008F7780938000089584B58F7702C084B543
:100D40008F7D84BD08958091B0008F7703C080911E
:100D5000B0008F7D8093B0000895CF93DF9390E033
:100D6000FC01E458FF4F2491FC01E057FF4F8491B0
:100D7000882361F190E0880F991FFC01E255FF4F35
:100D8000C591D491FC01EC55FF4FA591B49161112F
:100D900009C09FB7F8948881209582238883EC91BD
:100DA0002E230BC0623061F49FB7F8943881822FF4
:100DB000809583238883EC912E2B2C939FBF06C0B4
:100DC0008FB7F894E8812E2B28838FBFDF91CF91C6
:100DD00008951F93CF93DF93282F30E0F901E8594E
:100DE000FF4F8491F901E458FF4FD491F901E05786
:100DF000FF4FC491CC23C9F0162F81110E948406A5
:100E0000EC2FF0E0EE0FFF1FEC55FF4FA591B491D2
:100E10008FB7F894111105C09C91ED2FE095E9234F
:100E200002C0EC91ED2BEC938FBFDF91CF911F911E
:100E30000895DB018F939F930E947607BF91AF9136
:100E4000A29F800D911DA39F900DB29F900D112424
:100E50000895991B79E004C0991F961708F0961B16
:100E6000881F7A95C9F780950895A1E21A2EAA1BCA
:100E7000BB1BFD010DC0AA1FBB1FEE1FFF1FA2174A
:100E8000B307E407F50720F0A21BB30BE40BF50B47
:100E9000661F771F881F991F1A9469F760957095D0
:100EA000809590959B01AC01BD01CF010895052E61
:100EB00097FB1EF400940E946E0757FD07D00E9416
:100EC000350707FC03D04EF40C946E0750954095FF
:100ED000309521953F4F4F4F5F4F089590958095E6
:100EE000709561957F4F8F4F9F4F08950E948707A0
:100EF000A59F900DB49F900DA49F800D911D11246E
:100F00000895EE0FFF1F0590F491E02D0994A29F24
:100F1000B001B39FC001A39F700D811D1124911DCD
:100F2000B29F700D811D1124911D0895F894FFCF7B
:100F30000300010000000061039C0401033F03D390
:100F400002ED02DF020D0A006E616E00696E66003E
:040F50006F76660052
:00000001FF
